{
  "contractName": "ItemManager",
  "abi": [
    {
      "anonymous": false,
      "inputs": [
        {
          "indexed": false,
          "internalType": "uint256",
          "name": "itemIndex",
          "type": "uint256"
        },
        {
          "indexed": false,
          "internalType": "uint256",
          "name": "state",
          "type": "uint256"
        },
        {
          "indexed": false,
          "internalType": "address",
          "name": "item",
          "type": "address"
        }
      ],
      "name": "SupplyChainStep",
      "type": "event"
    },
    {
      "inputs": [],
      "name": "isOwner",
      "outputs": [
        {
          "internalType": "bool",
          "name": "",
          "type": "bool"
        }
      ],
      "stateMutability": "view",
      "type": "function",
      "constant": true
    },
    {
      "inputs": [
        {
          "internalType": "uint256",
          "name": "",
          "type": "uint256"
        }
      ],
      "name": "items",
      "outputs": [
        {
          "internalType": "contract Item",
          "name": "item",
          "type": "address"
        },
        {
          "internalType": "string",
          "name": "name",
          "type": "string"
        },
        {
          "internalType": "uint256",
          "name": "price",
          "type": "uint256"
        },
        {
          "internalType": "enum ItemManager.SupplyChainState",
          "name": "state",
          "type": "uint8"
        }
      ],
      "stateMutability": "view",
      "type": "function",
      "constant": true
    },
    {
      "inputs": [],
      "name": "owner",
      "outputs": [
        {
          "internalType": "address payable",
          "name": "",
          "type": "address"
        }
      ],
      "stateMutability": "view",
      "type": "function",
      "constant": true
    },
    {
      "inputs": [
        {
          "internalType": "string",
          "name": "_name",
          "type": "string"
        },
        {
          "internalType": "uint256",
          "name": "_price",
          "type": "uint256"
        }
      ],
      "name": "createItem",
      "outputs": [],
      "stateMutability": "nonpayable",
      "type": "function"
    },
    {
      "inputs": [
        {
          "internalType": "uint256",
          "name": "_itemIndex",
          "type": "uint256"
        }
      ],
      "name": "triggerPayment",
      "outputs": [],
      "stateMutability": "payable",
      "type": "function",
      "payable": true
    },
    {
      "inputs": [
        {
          "internalType": "uint256",
          "name": "_itemIndex",
          "type": "uint256"
        }
      ],
      "name": "triggerDelivery",
      "outputs": [],
      "stateMutability": "nonpayable",
      "type": "function"
    },
    {
      "inputs": [
        {
          "internalType": "address payable",
          "name": "_to",
          "type": "address"
        },
        {
          "internalType": "uint256",
          "name": "_amount",
          "type": "uint256"
        }
      ],
      "name": "withdrawMoney",
      "outputs": [],
      "stateMutability": "nonpayable",
      "type": "function"
    }
  ],
  "bytecode": "0x608060405234801561001057600080fd5b50336000806101000a81548173ffffffffffffffffffffffffffffffffffffffff021916908373ffffffffffffffffffffffffffffffffffffffff160217905550611e61806100606000396000f3fe6080604052600436106200007a5760003560e01c80638f32d59b11620000555780638f32d59b14620000fd578063bfb231d2146200012d578063cd31831e1462000174578063f274c89714620001a2576200007a565b8063800fb83f146200007f5780638c551742146200009f5780638da5cb5b14620000cd575b600080fd5b6200009d600480360381019062000097919062000de4565b620001d0565b005b348015620000ac57600080fd5b50620000cb6004803603810190620000c5919062000d7e565b620004c5565b005b348015620000da57600080fd5b50620000e562000718565b604051620000f4919062000fea565b60405180910390f35b3480156200010a57600080fd5b50620001156200073c565b60405162000124919062001007565b60405180910390f35b3480156200013a57600080fd5b5062000159600480360381019062000153919062000de4565b62000792565b6040516200016b949392919062001061565b60405180910390f35b3480156200018157600080fd5b50620001a060048036038101906200019a919062000de4565b6200087f565b005b348015620001af57600080fd5b50620001ce6004803603810190620001c8919062000d37565b62000a93565b005b60006002811115620001e757620001e662001452565b5b6001600083815260200190815260200160002060030160009054906101000a900460ff16600281111562000220576200021f62001452565b5b1462000263576040517f08c379a00000000000000000000000000000000000000000000000000000000081526004016200025a90620010d7565b60405180910390fd5b60006001600083815260200190815260200160002060000160009054906101000a900473ffffffffffffffffffffffffffffffffffffffff1690503373ffffffffffffffffffffffffffffffffffffffff168173ffffffffffffffffffffffffffffffffffffffff16146200030f576040517f08c379a000000000000000000000000000000000000000000000000000000000815260040162000306906200113d565b60405180910390fd5b348173ffffffffffffffffffffffffffffffffffffffff1663a035b1fe6040518163ffffffff1660e01b815260040160206040518083038186803b1580156200035757600080fd5b505afa1580156200036c573d6000803e3d6000fd5b505050506040513d601f19601f8201168201806040525081019062000392919062000e16565b14620003d5576040517f08c379a0000000000000000000000000000000000000000000000000000000008152600401620003cc90620010b5565b60405180910390fd5b600180600084815260200190815260200160002060030160006101000a81548160ff0219169083600281111562000411576200041062001452565b5b02179055507fa4035636e99f06b7651a604c1019fa4e8779fe68ef27eeb74dff2de348f6199b826001600085815260200190815260200160002060030160009054906101000a900460ff16600281111562000471576200047062001452565b5b6001600086815260200190815260200160002060000160009054906101000a900473ffffffffffffffffffffffffffffffffffffffff16604051620004b99392919062001181565b60405180910390a15050565b60008054906101000a900473ffffffffffffffffffffffffffffffffffffffff1673ffffffffffffffffffffffffffffffffffffffff163373ffffffffffffffffffffffffffffffffffffffff161462000556576040517f08c379a00000000000000000000000000000000000000000000000000000000081526004016200054d906200111b565b60405180910390fd5b600030826002546040516200056b9062000bb6565b620005799392919062001024565b604051809103906000f08015801562000596573d6000803e3d6000fd5b5090508060016000600254815260200190815260200160002060000160006101000a81548173ffffffffffffffffffffffffffffffffffffffff021916908373ffffffffffffffffffffffffffffffffffffffff1602179055508260016000600254815260200190815260200160002060010190805190602001906200061e92919062000bc4565b508160016000600254815260200190815260200160002060020181905550600060016000600254815260200190815260200160002060030160006101000a81548160ff021916908360028111156200067b576200067a62001452565b5b02179055507fa4035636e99f06b7651a604c1019fa4e8779fe68ef27eeb74dff2de348f6199b60025460016000600254815260200190815260200160002060030160009054906101000a900460ff166002811115620006df57620006de62001452565b5b83604051620006f19392919062001181565b60405180910390a1600260008154809291906200070e90620013d5565b9190505550505050565b60008054906101000a900473ffffffffffffffffffffffffffffffffffffffff1681565b60003373ffffffffffffffffffffffffffffffffffffffff1660008054906101000a900473ffffffffffffffffffffffffffffffffffffffff1673ffffffffffffffffffffffffffffffffffffffff1614905090565b60016020528060005260406000206000915090508060000160009054906101000a900473ffffffffffffffffffffffffffffffffffffffff1690806001018054620007dd9062001369565b80601f01602080910402602001604051908101604052809291908181526020018280546200080b9062001369565b80156200085c5780601f1062000830576101008083540402835291602001916200085c565b820191906000526020600020905b8154815290600101906020018083116200083e57829003601f168201915b5050505050908060020154908060030160009054906101000a900460ff16905084565b60008054906101000a900473ffffffffffffffffffffffffffffffffffffffff1673ffffffffffffffffffffffffffffffffffffffff163373ffffffffffffffffffffffffffffffffffffffff161462000910576040517f08c379a000000000000000000000000000000000000000000000000000000000815260040162000907906200111b565b60405180910390fd5b6001600281111562000927576200092662001452565b5b6001600083815260200190815260200160002060030160009054906101000a900460ff16600281111562000960576200095f62001452565b5b14620009a3576040517f08c379a00000000000000000000000000000000000000000000000000000000081526004016200099a906200115f565b60405180910390fd5b60026001600083815260200190815260200160002060030160006101000a81548160ff02191690836002811115620009e057620009df62001452565b5b02179055507fa4035636e99f06b7651a604c1019fa4e8779fe68ef27eeb74dff2de348f6199b816001600084815260200190815260200160002060030160009054906101000a900460ff16600281111562000a405762000a3f62001452565b5b6001600085815260200190815260200160002060000160009054906101000a900473ffffffffffffffffffffffffffffffffffffffff1660405162000a889392919062001181565b60405180910390a150565b60008054906101000a900473ffffffffffffffffffffffffffffffffffffffff1673ffffffffffffffffffffffffffffffffffffffff163373ffffffffffffffffffffffffffffffffffffffff161462000b24576040517f08c379a000000000000000000000000000000000000000000000000000000000815260040162000b1b906200111b565b60405180910390fd5b4781111562000b6a576040517f08c379a000000000000000000000000000000000000000000000000000000000815260040162000b6190620010f9565b60405180910390fd5b8173ffffffffffffffffffffffffffffffffffffffff166108fc829081150290604051600060405180830381858888f1935050505015801562000bb1573d6000803e3d6000fd5b505050565b61077480620016b883390190565b82805462000bd29062001369565b90600052602060002090601f01602090048101928262000bf6576000855562000c42565b82601f1062000c1157805160ff191683800117855562000c42565b8280016001018555821562000c42579182015b8281111562000c4157825182559160200191906001019062000c24565b5b50905062000c51919062000c55565b5090565b5b8082111562000c7057600081600090555060010162000c56565b5090565b600062000c8b62000c8584620011e7565b620011be565b90508281526020810184848401111562000caa5762000ca9620014e4565b5b62000cb784828562001324565b509392505050565b60008135905062000cd08162001683565b92915050565b600082601f83011262000cee5762000ced620014df565b5b813562000d0084826020860162000c74565b91505092915050565b60008135905062000d1a816200169d565b92915050565b60008151905062000d31816200169d565b92915050565b6000806040838503121562000d515762000d50620014ee565b5b600062000d618582860162000cbf565b925050602062000d748582860162000d09565b9150509250929050565b6000806040838503121562000d985762000d97620014ee565b5b600083013567ffffffffffffffff81111562000db95762000db8620014e9565b5b62000dc78582860162000cd6565b925050602062000dda8582860162000d09565b9150509250929050565b60006020828403121562000dfd5762000dfc620014ee565b5b600062000e0d8482850162000d09565b91505092915050565b60006020828403121562000e2f5762000e2e620014ee565b5b600062000e3f8482850162000d20565b91505092915050565b62000e53816200124d565b82525050565b62000e648162001239565b82525050565b62000e758162001261565b82525050565b62000e8681620012ac565b82525050565b62000e9781620012c0565b82525050565b62000ea881620012d4565b82525050565b600062000ebb826200121d565b62000ec7818562001228565b935062000ed981856020860162001333565b62000ee481620014f3565b840191505092915050565b600062000efe601b8362001228565b915062000f0b8262001504565b602082019050919050565b600062000f2560218362001228565b915062000f32826200152d565b604082019050919050565b600062000f4c60108362001228565b915062000f59826200157c565b602082019050919050565b600062000f7360198362001228565b915062000f8082620015a5565b602082019050919050565b600062000f9a602b8362001228565b915062000fa782620015ce565b604082019050919050565b600062000fc1602a8362001228565b915062000fce826200161d565b604082019050919050565b62000fe481620012a2565b82525050565b600060208201905062001001600083018462000e48565b92915050565b60006020820190506200101e600083018462000e6a565b92915050565b60006060820190506200103b600083018662000e7b565b6200104a602083018562000fd9565b62001059604083018462000fd9565b949350505050565b600060808201905062001078600083018762000e8c565b81810360208301526200108c818662000eae565b90506200109d604083018562000fd9565b620010ac606083018462000e9d565b95945050505050565b60006020820190508181036000830152620010d08162000eef565b9050919050565b60006020820190508181036000830152620010f28162000f16565b9050919050565b60006020820190508181036000830152620011148162000f3d565b9050919050565b60006020820190508181036000830152620011368162000f64565b9050919050565b60006020820190508181036000830152620011588162000f8b565b9050919050565b600060208201905081810360008301526200117a8162000fb2565b9050919050565b600060608201905062001198600083018662000fd9565b620011a7602083018562000fd9565b620011b6604083018462000e59565b949350505050565b6000620011ca620011dd565b9050620011d882826200139f565b919050565b6000604051905090565b600067ffffffffffffffff821115620012055762001204620014b0565b5b6200121082620014f3565b9050602081019050919050565b600081519050919050565b600082825260208201905092915050565b6000620012468262001282565b9050919050565b60006200125a8262001282565b9050919050565b60008115159050919050565b60008190506200127d826200166c565b919050565b600073ffffffffffffffffffffffffffffffffffffffff82169050919050565b6000819050919050565b6000620012b982620012e8565b9050919050565b6000620012cd82620012fc565b9050919050565b6000620012e1826200126d565b9050919050565b6000620012f58262001310565b9050919050565b6000620013098262001310565b9050919050565b60006200131d8262001282565b9050919050565b82818337600083830152505050565b60005b838110156200135357808201518184015260208101905062001336565b8381111562001363576000848401525b50505050565b600060028204905060018216806200138257607f821691505b6020821081141562001399576200139862001481565b5b50919050565b620013aa82620014f3565b810181811067ffffffffffffffff82111715620013cc57620013cb620014b0565b5b80604052505050565b6000620013e282620012a2565b91507fffffffffffffffffffffffffffffffffffffffffffffffffffffffffffffffff82141562001418576200141762001423565b5b600182019050919050565b7f4e487b7100000000000000000000000000000000000000000000000000000000600052601160045260246000fd5b7f4e487b7100000000000000000000000000000000000000000000000000000000600052602160045260246000fd5b7f4e487b7100000000000000000000000000000000000000000000000000000000600052602260045260246000fd5b7f4e487b7100000000000000000000000000000000000000000000000000000000600052604160045260246000fd5b600080fd5b600080fd5b600080fd5b600080fd5b6000601f19601f8301169050919050565b7f506c65617365207061792074686520657861637420616d6f756e740000000000600082015250565b7f54686973206974656d206973206e6f7420666f722073616c6520616e796d6f7260008201527f6500000000000000000000000000000000000000000000000000000000000000602082015250565b7f4e6f7420656e6f7567682066756e647300000000000000000000000000000000600082015250565b7f596f7520646f6e27742068617665207065726d697373696f6e00000000000000600082015250565b7f4f6e6c79206974656d732061726520616c6c6f77656420746f2075706461746560008201527f207468656d73656c766573000000000000000000000000000000000000000000602082015250565b7f54686973206974656d2063616e27742062652064656c6976657265642028777260008201527f6f6e672073746174652900000000000000000000000000000000000000000000602082015250565b6003811062001680576200167f62001452565b5b50565b6200168e816200124d565b81146200169a57600080fd5b50565b620016a881620012a2565b8114620016b457600080fd5b5056fe608060405234801561001057600080fd5b50604051610774380380610774833981810160405281019061003291906100b3565b816000819055508060018190555082600360006101000a81548173ffffffffffffffffffffffffffffffffffffffff021916908373ffffffffffffffffffffffffffffffffffffffff160217905550505050610187565b60008151905061009881610159565b92915050565b6000815190506100ad81610170565b92915050565b6000806000606084860312156100cc576100cb610154565b5b60006100da86828701610089565b93505060206100eb8682870161009e565b92505060406100fc8682870161009e565b9150509250925092565b60006101118261012a565b9050919050565b600061012382610106565b9050919050565b600073ffffffffffffffffffffffffffffffffffffffff82169050919050565b6000819050919050565b600080fd5b61016281610118565b811461016d57600080fd5b50565b6101798161014a565b811461018457600080fd5b50565b6105de806101966000396000f3fe6080604052600436106100385760003560e01c8063216340c3146102505780632986c0e51461027b578063a035b1fe146102a657610241565b3661024157600060025414610082576040517f08c379a0000000000000000000000000000000000000000000000000000000008152600401610079906103e3565b60405180910390fd5b60005434146100c6576040517f08c379a00000000000000000000000000000000000000000000000000000000081526004016100bd906103a3565b60405180910390fd5b34600260008282546100d89190610445565b925050819055506000600360009054906101000a900473ffffffffffffffffffffffffffffffffffffffff1673ffffffffffffffffffffffffffffffffffffffff163460015460405160240161012e9190610403565b6040516020818303038152906040527f800fb83f000000000000000000000000000000000000000000000000000000007bffffffffffffffffffffffffffffffffffffffffffffffffffffffff19166020820180517bffffffffffffffffffffffffffffffffffffffffffffffffffffffff83818316178352505050506040516101b8919061038c565b60006040518083038185875af1925050503d80600081146101f5576040519150601f19603f3d011682016040523d82523d6000602084013e6101fa565b606091505b505090508061023e576040517f08c379a0000000000000000000000000000000000000000000000000000000008152600401610235906103c3565b60405180910390fd5b50005b34801561024d57600080fd5b50005b34801561025c57600080fd5b506102656102d1565b6040516102729190610403565b60405180910390f35b34801561028757600080fd5b506102906102d7565b60405161029d9190610403565b60405180910390f35b3480156102b257600080fd5b506102bb6102dd565b6040516102c89190610403565b60405180910390f35b60025481565b60015481565b60005481565b60006102ee8261041e565b6102f88185610429565b93506103088185602086016104a5565b80840191505092915050565b6000610321601b83610434565b915061032c82610507565b602082019050919050565b6000610344602a83610434565b915061034f82610530565b604082019050919050565b6000610367601483610434565b91506103728261057f565b602082019050919050565b6103868161049b565b82525050565b600061039882846102e3565b915081905092915050565b600060208201905081810360008301526103bc81610314565b9050919050565b600060208201905081810360008301526103dc81610337565b9050919050565b600060208201905081810360008301526103fc8161035a565b9050919050565b6000602082019050610418600083018461037d565b92915050565b600081519050919050565b600081905092915050565b600082825260208201905092915050565b60006104508261049b565b915061045b8361049b565b9250827fffffffffffffffffffffffffffffffffffffffffffffffffffffffffffffffff038211156104905761048f6104d8565b5b828201905092915050565b6000819050919050565b60005b838110156104c35780820151818401526020810190506104a8565b838111156104d2576000848401525b50505050565b7f4e487b7100000000000000000000000000000000000000000000000000000000600052601160045260246000fd5b7f506c65617365207061792074686520657861637420616d6f756e740000000000600082015250565b7f54686572652077617320616e206572726f722e2043616e63656c6c696e67207460008201527f72616e73616374696f6e00000000000000000000000000000000000000000000602082015250565b7f4974656d206973207061696420616c726561647900000000000000000000000060008201525056fea26469706673582212208c25b2d370690881aa13f2884615e53291da9d0052b343624db878e306712fcf64736f6c63430008070033a26469706673582212201c034cbc780c8efea87519da5bc770bfc3d89c77b0378c11692c09c893368a3f64736f6c63430008070033",
  "immutableReferences": {},
  "source": "pragma solidity ^0.8.7;\n\nimport './Ownable.sol';\nimport './Item.sol';\n\ncontract ItemManager is Ownable {\n    enum SupplyChainState {\n        Created,\n        Paid,\n        Delivered\n    }\n    \n    event SupplyChainStep(uint itemIndex, uint state, address item);\n    \n    struct S_Item {\n        Item item;\n        string name;\n        uint price;\n        SupplyChainState state;\n    }\n    \n    mapping(uint => S_Item) public items;\n    \n    uint itemCount;\n    \n    function createItem(string memory _name, uint _price) public onlyOwner {\n        Item item = new Item(this, _price, itemCount);\n        items[itemCount].item = item;\n        \n        items[itemCount].name = _name;\n        items[itemCount].price = _price;\n        items[itemCount].state = SupplyChainState.Created;\n        \n        emit SupplyChainStep(itemCount, uint(items[itemCount].state), address(item));\n        \n        itemCount++;\n    }\n    \n    function triggerPayment(uint _itemIndex) public payable {\n        require(items[_itemIndex].state == SupplyChainState.Created, \"This item is not for sale anymore\");\n        \n        Item item = items[_itemIndex].item;\n        require(address(item) == msg.sender, \"Only items are allowed to update themselves\");\n        require(item.price() == msg.value, \"Please pay the exact amount\");\n        \n        items[_itemIndex].state = SupplyChainState.Paid;\n        \n        emit SupplyChainStep(_itemIndex, uint(items[_itemIndex].state), address(items[_itemIndex].item));\n    }\n    \n    function triggerDelivery(uint _itemIndex) public onlyOwner {\n        require(items[_itemIndex].state == SupplyChainState.Paid, \"This item can't be delivered (wrong state)\");\n        \n        items[_itemIndex].state = SupplyChainState.Delivered;\n        \n        emit SupplyChainStep(_itemIndex, uint(items[_itemIndex].state), address(items[_itemIndex].item));\n    }\n    \n    function withdrawMoney(address payable _to, uint _amount) public onlyOwner {\n        require(_amount <= address(this).balance, 'Not enough funds');\n        _to.transfer(_amount);\n    }\n}",
  "sourcePath": "/Users/stefanweber/solidity-truffle-supply-chain-project/contracts/ItemManager.sol",
  "compiler": {
    "name": "solc",
    "version": "0.8.7+commit.e28d00a7.Emscripten.clang"
  },
  "schemaVersion": "3.4.3",
  "updatedAt": "2021-11-07T19:19:35.587Z",
  "networkType": "ethereum",
  "devdoc": {
    "kind": "dev",
    "methods": {},
    "version": 1
  },
  "userdoc": {
    "kind": "user",
    "methods": {},
    "version": 1
  }
}