{
  "contractName": "Ownable",
  "abi": [
    {
      "inputs": [],
      "stateMutability": "nonpayable",
      "type": "constructor"
    },
    {
      "inputs": [],
      "name": "owner",
      "outputs": [
        {
          "internalType": "address payable",
          "name": "",
          "type": "address"
        }
      ],
      "stateMutability": "view",
      "type": "function"
    },
    {
      "inputs": [],
      "name": "isOwner",
      "outputs": [
        {
          "internalType": "bool",
          "name": "",
          "type": "bool"
        }
      ],
      "stateMutability": "view",
      "type": "function"
    }
  ],
  "bytecode": "0x608060405234801561001057600080fd5b50336000806101000a81548173ffffffffffffffffffffffffffffffffffffffff021916908373ffffffffffffffffffffffffffffffffffffffff1602179055506101b9806100606000396000f3fe608060405234801561001057600080fd5b50600436106100365760003560e01c80638da5cb5b1461003b5780638f32d59b14610059575b600080fd5b610043610077565b604051610050919061010f565b60405180910390f35b61006161009b565b60405161006e919061012a565b60405180910390f35b60008054906101000a900473ffffffffffffffffffffffffffffffffffffffff1681565b60003373ffffffffffffffffffffffffffffffffffffffff1660008054906101000a900473ffffffffffffffffffffffffffffffffffffffff1673ffffffffffffffffffffffffffffffffffffffff1614905090565b6100fa81610145565b82525050565b61010981610157565b82525050565b600060208201905061012460008301846100f1565b92915050565b600060208201905061013f6000830184610100565b92915050565b600061015082610163565b9050919050565b60008115159050919050565b600073ffffffffffffffffffffffffffffffffffffffff8216905091905056fea264697066735822122090633c9e7c7a87b82dfe66b32db61a8ef36621ffec06cfd79eb990719f34150264736f6c63430008070033",
  "immutableReferences": {},
  "source": "pragma solidity ^0.8.7;\n\ncontract Ownable {\n    address payable public owner;\n    \n    constructor() {\n        owner = payable(msg.sender);\n    }\n    \n    modifier onlyOwner() {\n        require(msg.sender == owner, \"You don't have permission\");\n        _;\n    }\n    \n    function isOwner() public view returns(bool) {\n        return owner == msg.sender;\n    }\n}",
  "sourcePath": "/Users/stefanweber/solidity-truffle-supply-chain-project/contracts/Ownable.sol",
  "compiler": {
    "name": "solc",
    "version": "0.8.7+commit.e28d00a7.Emscripten.clang"
  },
  "schemaVersion": "3.4.3",
  "updatedAt": "2021-11-07T18:42:04.118Z",
  "devdoc": {
    "kind": "dev",
    "methods": {},
    "version": 1
  },
  "userdoc": {
    "kind": "user",
    "methods": {},
    "version": 1
  }
}